:100000000C947D060C94C4060C94C4060C94C4068F
:100010000C94C4060C94C4060C94C4060C94C40638
:100020000C94C4060C94C4060C94EB0D0C94BD0EF9
:100030000C94261D0C94C4060C94C4060C94C4069F
:100040000C94C4060C94C4060C94C4060C94C40608
:100050000C94C4060C949A1D0C94C4060C94C4060B
:100060000C94C4060C94C4060C94C4060C94C406E8
:100070000C94C4060C94C4060C94C4060C94C406D8
:100080000C94C4060C94C4060C94C4060C94C406C8
:100090000C94C4060C94C4060C94C4060C94C406B8
:1000A0000C94C4060C94C4060C94C4062A0F4C0F7E
:1000B0003A104C0F3A10910FB40F3A1009101C105F
:1000C0008E138E13BB13BB13161452144A164A1602
:1000D0006A144A166515651520164A164A1636160C
:1000E0000112021201E1010C020C02E101170217D8
:1000F000012C022C01290229000112021201E10146
:1001000006020602E1011202120111021101170298
:100110001701080208011B021B01170217012C021C
:100120002C01290229000112021201E10107020734
:1001300002E1010802080116021601060206011575
:100140000215010C020C0105020501080208012C30
:10015000022C0129022900010A020A010C020C01E9
:10016000110211010E020E010A020A01120212010D
:100170002C022C012D022D01150215012C022C013F
:100180002D022D01150215010402040106020601CB
:10019000080208012C022C012D022D011802180161
:1001A00011021101170217010C020C010F020F01BD
:1001B000E1010C020C02E10117021701E101090241
:1001C0000902E101040204010C020C010F020F01FB
:1001D000160216012C022C012D022D01150215010B
:1001E00004020401110211010702070112021201A7
:1001F000100210010C020C011D021D010802080171
:10020000E10104020402E1010F020F010F020F01DC
:10021000E10116021602E1011302130108020801AE
:10022000060206011602160128022800018A028A27
:10023000048A088A00C001C002C003C0296754555F
:10024000560024252657C321222300C21E1F2058F2
:10025000C127006300C1ABACB000A9F4F0F500AA5F
:10026000F2F1F300A8F9FBFA000000000000C22937
:10027000000000001C5213000050514F000000000D
:1002800000580000000000C3C4C5C6C7000000003D
:10029000000000000000000000000000000000005E
:1002A0000A002530313662003A20002530325800ED
:1002B0000A722F63203031323334353637383941C2
:1002C00042434445460A000A002530325800626F16
:1002D000756E6365213A20005B735D004B65796242
:1002E0006F6172642073746172742E0A00555342F8
:1002F00020636F6E666967757265642E0A005B57CE
:100300005D005B535D005B525D005B445D005B43E1
:100310005D000A0347004800360030000000120369
:100320006700650065006B006800610063006B009A
:1003300000000403090409028D00050100A0320930
:100340000400000103010100092111010001224004
:10035000000705810308000A0904010001030102E6
:1003600000092111010001224D0007058203080048
:100370000A09040200010300000009211101000123
:100380002236000705830308000A0904030002035C
:100390000000000921110100012222000705840349
:1003A00020000107050403200001090404000103E3
:1003B0000000000921110100012239000705850311
:1003C0002000011201100100000008EDFE60600134
:1003D000000102000105010906A101050719E02934
:1003E000E715002501950875018102050819012905
:1003F0000595057501910295017503910105071990
:100400000029F71500250195F875018102C0063114
:10041000FF0974A1010975150026FF0095207508D4
:1004200081020976150026FF00952075089102C00B
:1004300005010980A101850216810026B7001A81F5
:10044000002AB700751095018100C0050C0901A1B3
:10045000018503160100269C021A01002A9C0275E0
:100460001095018100C005010902A1010901A10047
:100470000509190129051500250195057501810258
:100480009501750381010501093009311581257F29
:1004900095027508810609381581257F9501750833
:1004A0008106050C0A38021581257F9501750881A2
:1004B00006C0C005010906A101050719E029E715D5
:1004C00000250195087501810295017508810105D6
:1004D000081901290595057501910295017503918A
:1004E000010507190029FF150026FF00950675086C
:1004F0008100C00A002530325820006B6579626F98
:100500006172645F7265706F72743A20004C45448A
:100510003A20253032580A0064656C5F6B65795F5C
:100520006269743A2063616E27742064656C3A20B6
:10053000253032580A006164645F6B65795F6269D7
:10054000743A2063616E2774206164643A20253018
:1005500032580A00646F6E652E0A00626F6F746D08
:1005600061676963207363616E3A202E2E2E20002E
:10057000290A002575002F002575005D28002564D7
:100580000020002564002000256400200025640070
:100590007C0025303258006D6F7573656B6579206E
:1005A0005B62746E7C782079207620685D287265A5
:1005B000702F61636C293A205B006D6B5F77686513
:1005C000656C5F74696D655F746F5F6D6178203D08
:1005D0002025640A006D6B5F776865656C5F6D61EF
:1005E000785F7370656564203D2025640A006D6B3B
:1005F0005F74696D655F746F5F6D6178203D202564
:10060000640A006D6B5F6D61785F7370656564206F
:100610003D2025640A006D6B5F696E7465727661BA
:100620006C203D2025640A006D6B5F64656C617908
:10063000203D2025640A006D6B5F776865656C5FFF
:1006400074696D655F746F5F6D6178203D2025640E
:100650000A006D6B5F776865656C5F6D61785F73CD
:1006600070656564203D2025640A006D6B5F7469C8
:100670006D655F746F5F6D6178203D2025640A00B1
:100680006D6B5F6D61785F7370656564203D2025DB
:10069000640A006D6B5F696E74657276616C203DF3
:1006A0002025640A006D6B5F64656C6179203D20D4
:1006B00025640A000A00257500363A2077686565CA
:1006C0006C5F74696D655F746F5F6D61783A20006F
:1006D0000A00257500353A20776865656C5F6D61A5
:1006E000785F73706565643A20000A0025750034F0
:1006F0003A2074696D655F746F5F6D61783A2000B0
:100700000A00257500333A206D61785F7370656566
:10071000643A20000A00257500323A20696E74653B
:100720007276616C286D73293A20000A00257500E5
:10073000313A2064656C6179282A31306D73293A29
:1007400020000A092D2056616C756573202D0A0062
:100750004D3E004D25643E20003F007365742064CB
:10076000656661756C740A00433E200077686572A7
:10077000652064656C74613A20637572736F723DB5
:1007800025642C20776865656C3D25640A53656592
:1007900020687474703A2F2F656E2E77696B6970BC
:1007A000656469612E6F72672F77696B692F4D6F72
:1007B0007573655F6B6579730A000A092D204D6FAB
:1007C0007573656B6579202D0A4553432F713A097E
:1007D000717569740A313A0964656C6179282A3146
:1007E000306D73290A323A09696E74657276616CEC
:1007F000286D73290A333A096D61785F73706565F6
:10080000640A343A0974696D655F746F5F6D61786D
:100810000A353A09776865656C5F6D61785F73705A
:100820006565640A363A09776865656C5F74696D59
:10083000655F746F5F6D61780A0A703A097072695A
:100840006E742076616C7565730A643A0973657419
:100850002064656661756C74730A75703A092B3192
:100860000A646F776E3A092D310A706775703A091C
:100870002B31300A7067646F776E3A092D31300A78
:100880000A7370656564203D2064656C7461202A7C
:10089000206D61785F7370656564202A2028726519
:1008A00070656174202F2074696D655F746F5F6D72
:1008B0006178290A003F004D3E2000433E20004C55
:1008C00025640A000A092D20436F6E736F6C652042
:1008D0002D0A4553432F713A09717569740A6D3AAF
:1008E000096D6F7573656B65790A000A092D204DD6
:1008F00061676963202D0A643A0964656275670A55
:10090000783A096465627567206D61747269780A66
:100910006B3A096465627567206B6579626F617215
:10092000640A6D3A096465627567206D6F75736559
:100930000A763A0976657273696F6E0A733A0973BB
:1009400074617475730A633A09636F6E736F6C65D3
:10095000206D6F64650A302D343A096C61796572D7
:10096000302D34284631302D4634290A50617573B4
:100970003A09626F6F746C6F616465720A653A0957
:10098000656570726F6D0A6E3A094E4B524F0A00E0
:100990000A002575002E6E6B726F3A20000A002542
:1009A00075002E737761705F6261636B736C617346
:1009B000685F6261636B73706163653A20000A006F
:1009C0002575002E737761705F67726176655F656C
:1009D00073633A20000A002575002E6E6F5F6775FD
:1009E000693A20000A002575002E737761705F72E6
:1009F000616C745F726775693A20000A00257500A2
:100A00002E737761705F6C616C745F6C6775693AA7
:100A100020000A002575002E636170736C6F636B94
:100A20005F746F5F636F6E74726F6C3A20000A00C0
:100A30002575002E737761705F636F6E74726F6CD3
:100A40005F636170736C6F636B3A20000A0025303E
:100A50003258006B65796D61705F636F6E666967B0
:100A60002E7261773A20000A002575002E6D6F7591
:100A700073653A20000A002575002E6B6579626F58
:100A80006172643A20000A002575002E6D6174724F
:100A900069783A20000A002575002E656E61626C47
:100AA000653A20000A002530325800646562756797
:100AB0005F636F6E6669672E7261773A20000A0085
:100AC00025750064656661756C745F6C617965722B
:100AD0003A20003F004E4B524F3A206F66660A00A4
:100AE0004E4B524F3A206F6E0A0074696D65725F0B
:100AF00072656164333228293A202530346C580AF3
:100B0000006B6579626F6172645F6E6B726F3A2021
:100B100025580A006B6579626F6172645F69646C65
:100B2000653A2025580A006B6579626F6172645FCF
:100B300070726F746F636F6C3A2025580A00686F8B
:100B400073745F6B6579626F6172645F6C65647307
:100B500028293A2025580A000A092D205374617467
:100B60007573202D0A004743433A20342E392E3224
:100B7000204156522D4C4942433A20312E382E30D6
:100B800073766E204156525F415243483A20617657
:100B900072350A004F5054494F4E533A204C554637
:100BA0004120424F4F544D41474943204D4F5553EB
:100BB000454B45592045585452414B455920434FC8
:100BC0004E534F4C4520434F4D4D414E44204E4BCC
:100BD000524F20343039360A004255494C443A20AD
:100BE00035653937666437202830343A34333A3340
:100BF00036204F63742020322032303136290A00EB
:100C00005649443A20307846454544286765656B27
:100C10006861636B29205049443A20307836303679
:100C200030284748363029205645523A203078300F
:100C30003030310A00444553433A20742E6D2E6BF8
:100C40002E206B6579626F617264206669726D77C0
:100C500061726520666F7220474836300A000A09C3
:100C60002D2056657273696F6E202D0A000A6D6F14
:100C70007573653A206F66660A000A6D6F75736555
:100C80003A206F6E0A000A6B6579626F6172643A8E
:100C9000206F66660A000A6B6579626F6172643A5A
:100CA000206F6E0A000A6D61747269783A206F666F
:100CB000660A000A6D61747269783A206F6E0A00E4
:100CC0000A64656275673A206F6E0A000A6465629D
:100CD00075673A206F66660A000A0A626F6F746C65
:100CE0006F616465722E2E2E2000433E20006565E4
:100CF000636F6E6669673A0A000011241FBECFEF6A
:100D0000DAE0DEBFCDBF04B603FE27C08091F70155
:100D10009091F801A091F901B091FA018730904BC0
:100D2000A740B04BD1F41092F7011092F801109245
:100D3000F9011092FA0114BE84B7877F84BF0FB601
:100D4000F894A8958091600088618093600010926B
:100D500060000FBEE0E0F8E3099511E0A0E0B1E02B
:100D6000E0EAF4E502C005900D92A833B107D9F787
:100D700021E0A8E3B1E001C01D92A73FB207E1F76F
:100D80000E941A0B0C944E2A0C940000FF93EF93D0
:100D9000E0913801F0913901309709F00995EF9110
:100DA000FF910895FC018591803011F0EFDFFBCFBA
:100DB0000895FF27E0E230E247FF0CC0419597FF1E
:100DC00009C0EDE26095709580959095611D711D4B
:100DD000811D911D27FF02C0219530E350E2AA2713
:100DE000660F771F881F991FAA1FA41710F0A41B56
:100DF00063955A95A9F7AA3008F0A95FA05DAF9353
:100E0000F395611571058105910541F7ED3211F4F6
:100E1000EF93F395F21718F43F93F395FBCF8F916F
:100E2000B5DFFA95E1F70895E991F9918591803060
:100E300021F0853219F0AADFF9CF089520E0E89477
:100E400055915532C1F3503311F4689455915A338A
:100E500048F4505390F3220F022E220F220F200D40
:100E6000250FF4CF0EF4219589919991533619F3FA
:100E7000533729F1533559F1BC0188279927E89454
:100E80005C3621F48991999168945591543639F4DE
:100E900046EF7EF077FF0DC08FEF9FEF0AC055370A
:100EA0004AE039F0583540E121F0523642E009F08D
:100EB0000895FF93EF937DDFEF91FF91B7CFFF93FD
:100EC000EF93FC0181918030B9F360DFFBCFFF939A
:100ED000EF9368DFF1CFDF93CF93CDB7DEB72596E1
:100EE000A3DFCF91DF910895FC018281882381F0F7
:100EF000613041F080F0623041F0633049F480EEBF
:100F000090E0089586E291E0089589EF90E00895D9
:100F100080E090E0089587E591E008958AB1807EB1
:100F20008AB98BB1807E8BB908950E948E0784B1F7
:100F3000847C84B985B18B6385B9AAE3B1E0EFE322
:100F4000F1E085E08E0F11921D928E13FCCF089573
:100F5000DF92EF92FF920F931F93CF93DF930AE3F9
:100F600011E0C0E0D1E085E0D82E99ECE92E92E0C6
:100F7000F92EC23071F018F4C13041F004C0C33012
:100F800059F0C43061F0509A58980BC0519A599852
:100F900008C0529A5A9805C0539A5B9802C0549A56
:100FA0005C9880EA8A95F1F783B181708D27199951
:100FB00002C092E001C090E0892B1D9902C094E02C
:100FC00001C090E0892B1B9902C098E001C090E01D
:100FD000892B1C9902C090E101C090E0892BF80197
:100FE0009081981739F1808380910001882301F165
:100FF0008091D80180FF04C08EEC92E00E94D2065E
:101000008091D80180FF0CC0809100011F928F93C6
:10101000FF92EF920E946B070F900F900F900F902E
:101020008091D80180FF04C087EC92E00E94D20634
:10103000D09200010E948E07CF5F0F5F1F4FC53017
:1010400009F097CF809100018823B1F081508093FF
:101050000001882339F08FE99FE00197F1F700C084
:1010600000000AC0AFE3B1E0EAE3F1E0CF018B5F3B
:1010700091919D938E13FCCF81E0DF91CF911F91D1
:101080000F91FF90EF90DF900895E82FF0E0E15C82
:10109000FE4F80810895CF92DF92EF92FF920F93DF
:1010A0001F93CF93DF9380EB92E00E94D2068FE3F1
:1010B000E82E81E0F82EC0E0D0E09BEAC92E92E055
:1010C000D92E02EA12E0DF93CF93DF92CF920E94F3
:1010D0006B0788EA92E00E94D206F70181917F01B6
:1010E00090E00E94B61C9F938F931F930F930E94D2
:1010F0006B0780EA92E00E94D20621968DB79EB7D8
:1011000008960FB6F8949EBF0FBE8DBFC530D105AF
:10111000D1F6DF91CF911F910F91FF90EF90DF906B
:10112000CF90089581FF02C0229A01C022982A9888
:1011300008958091670108959FB7F8941092460131
:101140009FBF9091ED01943009F057C09091E90054
:101150009F703091EC00232F217030FD20E8922BFE
:1011600024E02093E9002091EB0020FF43C0209170
:10117000EE0027FF3FC020914401222321F020915F
:10118000E80025FF37C01092440126E03091E800C6
:1011900035FD15C03091ED01343061F53091EB0033
:1011A00035FD28C0215021F481E08093440122C004
:1011B000EFE9FFE03197F1F700C00000E7CF80933F
:1011C000F1008091E80085FD0AC08091E80080FF71
:1011D000FCCF8091E8008E778093E80006C08FB73F
:1011E000F89421E0209346018FBF9F709093E9000F
:1011F00080E008959F709093E9008FEF0895CF935A
:10120000DF9300D01F92CDB7DEB79C018091ED0136
:10121000843019F593E099833B832A839093E90006
:101220008FEF9091E800815095FD06C095ED9A955D
:10123000F1F700008111F5CF8091E80085FF0DC026
:1012400040E050E063E070E0CE0101960E94DB0BCD
:101250008091E8008E778093E8000F900F900F90B8
:10126000DF91CF910895CF93DF9300D01F92CDB738
:10127000DEB72091ED01243021F522E029839B8304
:101280008A8383E08093E9008FEF9091E80081509A
:1012900095FD06C095ED9A95F1F700008111F5CF07
:1012A0008091E80085FF0DC040E050E063E070E011
:1012B000CE0101960E94DB0B8091E8008E7780932F
:1012C000E8000F900F900F90DF91CF91089520913B
:1012D000ED012430F1F422E02093E9002FEF30916A
:1012E000E800215035FD06C035ED3A95F1F70000D4
:1012F0002111F5CF2091E80025FF0BC040E050E020
:1013000065E070E00E94DB0B8091E8008E778093AF
:10131000E8000895CF93DF932091ED01243009F088
:1013200048C0EC0180910B018823E1F080910C0111
:101330008823C1F085E08093E9008FEF9091E80069
:10134000815095FD06C095E19A95F1F70000811155
:10135000F5CF8091E80085FF2CC040E050E060E2CE
:1013600070E017C081E08093E9008FEF9091E80072
:10137000815095FD06C095ED9A95F1F70000811119
:10138000F5CF8091E80085FF14C040E050E068E0B0
:1013900070E0CE010E94DB0B8091E8008E77809395
:1013A000E80080E2FE01A7E4B1E001900D928A9589
:1013B000E1F7DF91CF9108958EE093E00E94D2068D
:1013C0008091EC01811109C00E94700D0E94CD0D29
:1013D0008091E20084608093E20008958AE093E0C7
:1013E0000E94D2061092EC01089586E093E00C94DE
:1013F000D206209145012F5F822F62E30E94E329EC
:10140000992319F020934501089510924501809188
:101410004601882371F18091ED01843041F580917E
:10142000E9008F702091EC00922F917020FD90E8E0
:10143000892B94E09093E9009091EB0090FF14C009
:101440009091EE0097FF10C09091E80095FF03C0C7
:101450001092F100F9CF9091E80090FF05C09091B3
:10146000E8009E779093E8008F708093E9001092D7
:101470004601089542E061EC81E00E94EA0C42E0FE
:1014800061EC82E00E94EA0C42E061EC83E00E94A1
:10149000EA0C42E261EC84E00E94EA0C42E261EC78
:1014A00085E00C94EA0C8091EF01833009F455C07B
:1014B00030F4813071F0823009F48EC008958A30A2
:1014C00009F47AC08B3009F460C0893009F09CC0FF
:1014D00020C08091EE01813A09F096C08091E80029
:1014E000877F8093E8008091F2019091F301892B2E
:1014F00021F460E287E491E003C060E080E090E0E6
:1015000070E00E94260C8091E8008B778093E800C1
:1015100008958091EE01813209F076C08091F20148
:101520009091F301009719F0049709F06DC0809134
:10153000E800877F8093E8008091E80082FD05C085
:101540008091ED018111F8CF5FC08091F10080930F
:1015500067018091E8008B7753C08091EE01813A5A
:1015600009F052C08091F2019091F301892B09F0AA
:101570004BC08091E800877F8093E8008091E8006D
:1015800080FFFCCF80910B0136C08091EE0181324B
:10159000D9F58091F2019091F301892BA9F5809101
:1015A000E800877F8093E8000E941F0D8091F00182
:1015B00080930B010C946B168091EE01813221F522
:1015C0008091E800877F8093E8000E941F0D809142
:1015D000F1018093680108958091EE01813AA1F4B0
:1015E0008091E800877F8093E8008091E80080FF89
:1015F000FCCF809168018093F1008091E8008E77A4
:101600008093E8000C941F0D08950895089508959F
:1016100082E093E00E94D2060C94070B0E94E51C26
:101620008091EB01882329F00E94101D81110C94F8
:10163000C50B089584B7877F84BF0FB6F894A8952B
:1016400080916000886180936000109260000FBEFE
:1016500090E080E80FB6F894809361009093610069
:101660000FBE0E94050B0E94E4100E94700D0E94A4
:10167000CD0D8091E20084608093E2008CE998E0D7
:101680000E949B1C78948091ED018430E1F78DEEEF
:1016900092E00E94D2060E94E61081E091E00E9452
:1016A00052108CED92E00E94D2060E94060B8091AF
:1016B000ED01853039F488ED92E00E94D2060E9457
:1016C0000E0BF5CF0E94EC10F2CF0C94241D8EEF80
:1016D00092E00E94D2060C94650B292F3327233009
:1016E0003105C9F064F42130310581F02230310533
:1016F00009F043C08DE890E026E333E042C0213298
:101700003105F1F02232310541F137C082E190E03C
:1017100023EC33E036C099278130910541F08230C7
:10172000910541F0892B49F5E2E3F3E005C0EEE1D4
:10173000F3E002C0E2E1F3E0849190E09F0121C078
:101740006530D8F4E62FF0E0EE0FFF1FEC5DFE4FA2
:101750002081318189E090E014C0653070F470E040
:10176000FB01EE0FFF1FE65EFE4F20813181FB0182
:10177000EB5EFE4F808190E004C080E090E020E0CE
:1017800030E0FA0131832083089580E189BD82E150
:1017900089BD09B400FEFDCF8091D8008F7D809374
:1017A000D8008091E00082608093E0008091E000AA
:1017B00081FDFCCF0895CF92DF92EF92FF920F93BD
:1017C0001F93CF93DF93EC018B016A010E943E0DC2
:1017D000811133C0C114D10439F0F60180819181A7
:1017E000081B190BC80FD91FE12CF12C011511058D
:1017F00019F18091E80085FD16C08091E8008E7790
:101800008093E800C114D10449F0F60180819181F0
:10181000E80EF91EF182E08285E00FC00E943E0DC5
:10182000882321F30AC089918093F10001501109A6
:10183000FFEFEF1AFF0ADACF80E0DF91CF911F911F
:101840000F91FF90EF90DF90CF9008952091F401D9
:101850003091F5012617370748F06115710539F405
:101860002091E8002E772093E80001C0B90140E004
:1018700061157105A9F12091ED01222309F443C0FE
:10188000253009F442C02091E80023FD40C020919A
:10189000E80022FD32C02091E80020FFE9CF40910E
:1018A000F3002091F20030E0342BFC01CF016115F0
:1018B000710559F02830310540F481918093F10091
:1018C000615071092F5F3F4FF1CF41E02830310562
:1018D00009F040E02091E8002E772093E800C8CF7F
:1018E0004111C9CF0AC08091ED01882361F0853094
:1018F00061F08091E80083FD0AC08091E80082FFDA
:10190000F2CF80E0089582E0089583E0089581E0B9
:1019100008952091F4013091F5012617370748F01A
:101920006115710539F42091E8002E772093E800C5
:1019300001C0B901FC0120E06115710591F18091B0
:10194000ED01882309F440C0853009F43FC080913F
:10195000E80083FD3DC08091E80082FD2FC08091AA
:10196000E80080FFE9CF2091F3008091F20090E041
:10197000922B6115710559F08830910540F424913E
:101980002093F1003196615071090196F2CF21E068
:10199000089709F020E08091E8008E778093E800B6
:1019A000CBCF2111CCCF0AC08091ED01882361F00B
:1019B000853061F08091E80083FD0AC08091E800E5
:1019C00082FFF2CF80E0089582E0089583E00895D9
:1019D00081E00895982F973058F59093E900981773
:1019E00039F07091EC002091ED005091F00003C0AF
:1019F000242F762F50E021FF19C03091EB003E7F5D
:101A00003093EB003091ED003D7F3093ED0030914D
:101A1000EB0031603093EB007093EC002093ED000D
:101A20005093F0002091EE0027FF07C09F5FD3CFB7
:101A30008F708093E90081E0089580E0089580919F
:101A4000EE0187FF11C08091E80082FD05C0809102
:101A5000ED018111F8CF11C08091E8008B770BC0A8
:101A60008091ED01882349F08091E80080FFF8CF54
:101A70008091E8008E778093E80008952091E4003B
:101A80003091E50095E64091EC00842F817040FF95
:101A900022C08091E80080FD1CC08091ED01882368
:101AA00091F0853091F08091EB0085FD10C0409160
:101AB000E4005091E5004217530729F39A01915031
:101AC00011F784E0089582E0089583E0089581E0AD
:101AD000089580E008954091E80042FFDECF089528
:101AE0000E94DE0D0E94E60DE0EEF0E08081816054
:101AF0008083E8EDF0E080818F77808319BCA7EDCB
:101B0000B0E08C918E7F8C9380818F7E8083109249
:101B1000EC0108950F931F93CF93DF930E94DE0D86
:101B20000E94E60DC8EDD0E088818F778883888198
:101B30008068888388818F7D888319BC1092ED012D
:101B40001092E9011092EB011092EA0100EE10E010
:101B5000F80180818B7F808388818160888342E067
:101B600060E080E00E94EA0CE1EEF0E080818E7F90
:101B70008083E2EEF0E080818160808380818860F4
:101B80008083F80180818E7F808388818061888353
:101B9000DF91CF911F910F910895E8EDF0E08081E2
:101BA0008F7E8083E7EDF0E080818160808384E038
:101BB00082BF81E08093EC010C948A0DE8EDF0E0A7
:101BC00080818E7F80831092E20008951092DA0067
:101BD0001092E10008951F920F920FB60F921124F8
:101BE0002F933F934F935F936F937F938F939F9325
:101BF000AF93BF93EF93FF938091E10082FF0BC0FF
:101C00008091E20082FF07C08091E1008B7F80938A
:101C1000E1000E94F9098091DA0080FF1FC08091E5
:101C2000D80080FF1BC08091DA008E7F8093DA009D
:101C30008091D90080FF0DC080E189BD82E189BD1E
:101C400009B400FEFDCF81E08093ED010E94DC0924
:101C500005C019BC1092ED010E94EE098091E100CF
:101C600080FF19C08091E20080FF15C08091E200E2
:101C70008E7F8093E2008091E20080618093E20099
:101C80008091D80080628093D80019BC85E0809351
:101C9000ED010E94080B8091E10084FF30C080912B
:101CA000E20084FF2CC080E189BD82E189BD09B4D6
:101CB00000FEFDCF8091D8008F7D8093D800809169
:101CC000E1008F7E8093E1008091E2008F7E80931F
:101CD000E2008091E20081608093E2008091E9015E
:101CE000882311F084E007C08091E30087FD02C0E3
:101CF00081E001C083E08093ED010E94670B809139
:101D0000E10083FF29C08091E20083FF25C080911C
:101D1000E100877F8093E10082E08093ED011092E3
:101D2000E9018091E1008E7F8093E1008091E200E3
:101D30008E7F8093E2008091E20080618093E200D8
:101D400042E060E080E00E94EA0C8091F000886050
:101D50008093F0000E94F509FF91EF91BF91AF9140
:101D60009F918F917F916F915F914F913F912F91B3
:101D70000F900FBE0F901F9018951F920F920FB6E5
:101D80000F9211242F933F934F935F936F937F9301
:101D90008F939F93AF93BF93CF93DF93EF93FF9373
:101DA000C091E900CF708091EC00D82FD17080FDF8
:101DB000D0E81092E9008091F000877F8093F000D6
:101DC00078940E94010F1092E9008091F0008860E1
:101DD0008093F000CD2BCF70C093E900FF91EF917D
:101DE000DF91CF91BF91AF919F918F917F916F9133
:101DF0005F914F913F912F910F900FBE0F901F90C9
:101E000018951F93CF93DF93CDB7DEB7AA970FB680
:101E1000F894DEBF0FBECDBFEEEEF1E088E08E0F8E
:101E20009091F10091938E13FBCF0E94530A809101
:101E3000E80083FF1FC18091EE019091EF01492FCF
:101E400050E04A30510508F015C1FA01EA5AFF4F37
:101E50000C94032A803881F0823809F00BC18091FC
:101E6000F2018F708093E9008091EB0085FB882759
:101E700080F91092E90006C08091EA019091EB018F
:101E8000911182609091E800977F9093E800809391
:101E9000F1001092F100C8C0282F2D7F09F0EAC090
:101EA000882319F0823061F0E5C08091F001813023
:101EB00009F0E0C0933009F080E08093EB012BC083
:101EC0008091F001811127C08091F2018F7009F497
:101ED000D1C08093E9002091EB0020FF1CC093301B
:101EE00021F48091EB00806214C09091EB0090612E
:101EF0009093EB0021E030E0A90102C0440F551F90
:101F00008A95E2F74093EA001092EA008091EB0094
:101F100088608093EB001092E9008091E800877F51
:101F200086C08111A7C01091F0011F778091E30056
:101F30008078812B8093E3008091E800877F8093F5
:101F4000E8000E941F0D8091E80080FFFCCF809187
:101F5000E30080688093E300111102C082E001C0B9
:101F600083E08093ED0186C08058823008F082C003
:101F70008091F0019091F1018C3D53E0950779F546
:101F800083E08A838AE289834FB7F894DE0113964F
:101F900020E03EE051E2E32FF0E050935700E4915F
:101FA00020FF03C0E295EF703F5FEF708E2F90E04F
:101FB000EA3010F0C79601C0C0968D939D932F5FB5
:101FC000243149F74FBF8091E800877F8093E80074
:101FD0006AE270E0CE0101960E94260C14C0AE01A8
:101FE0004F5F5F4F6091F2010E946D0BBC01892B26
:101FF00009F440C09091E800977F9093E8008981B0
:102000009A810E94890C8091E8008B778093E80088
:1020100031C0803879F58091E800877F8093E800AF
:102020008091E9018093F1008091E8008E778093A0
:10203000E8000E941F0D1EC081111CC09091F0018C
:102040009230C0F48091E800877F8093E8009093FD
:10205000E9010E941F0D8091E901811106C0809164
:10206000E30087FD02C081E001C084E08093ED01C0
:102070000E943A0A8091E80083FF0AC08091E8003C
:10208000877F8093E8008091EB0080628093EB0073
:10209000AA960FB6F894DEBF0FBECDBFDF91CF91E9
:1020A0001F91089590936E0180936D010895E091C2
:1020B0006D01F0916E01309721F00190F081E02DDB
:1020C000099480E00895EF92FF920F931F93CF93AE
:1020D000DF93E0916D01F0916E013097B1F18C01C9
:1020E0000280F381E02D09958091D80182FF2DC0F7
:1020F00080FF04C08BEF94E00E94D206E80110E25A
:1021000085EFE82E84E0F82E8091D80180FF0BC087
:1021100088811F928F93FF92EF920E946B070F901E
:102120000F900F900F90115021961111EDCF8091CB
:10213000D80180FF0AC083EF94E0DF91CF911F9117
:102140000F91FF90EF900C94D206DF91CF911F91E9
:102150000F91FF90EF900895E0916D01F0916E0165
:10216000309721F00480F581E02D099408952091A5
:102170006B0130916C018217930771F090936C01A1
:1021800080936B01E0916D01F0916E01309721F029
:102190000680F781E02D099408952091690130911E
:1021A0006A018217930771F090936A018093690125
:1021B000E0916D01F0916E01309721F00084F1857E
:1021C000E02D0994089508950C94E3100E944F1D8A
:1021D0000E9495070C94531FCF92DF92EF92FF92CB
:1021E0000F931F93CF93DF9300D000D000D0CDB7D3
:1021F000DEB70E94A80780E7C82E81E0D82E00E055
:1022000010E0E02E802F0E944508F60141916F01F9
:10221000F42EF826B1F40F5F1F4F0530110589F732
:102220008FEF89838A831B820E94581D8160782FDB
:102230009D838C8349815A816B818D810E94AB1172
:1022400047C09091D80191FF04C08E830E944B0833
:102250008E8120E030E04F2D50E0922FBA01022E07
:1022600002C0759567950A94E2F760FF2BC0298339
:10227000EA8221E030E0690102C0CC0CDD1C9A95B5
:10228000E2F790E08C219D21892B09F420E02B833B
:102290000E94581D8160782F9D838C8349815A81CB
:1022A0006B818D810E94AB1149815A816B817C8148
:1022B0008D810E94D11CF801E059FE4F8081C82613
:1022C000C08206C02F5F3F4F2530310531F6A3CFC6
:1022D0000E94D01C0E94DD2210916F010E945710B5
:1022E000181741F10E94571080936F019091D80107
:1022F00092FF0EC090FF0CC01F928F938DE095E06F
:102300009F938F930E946B070F900F900F900F90E9
:1023100080916F0126960FB6F894DEBF0FBECDBF39
:10232000DF91CF911F910F91FF90EF90DF90CF90B1
:102330000C94E21C26960FB6F894DEBF0FBECDBFFC
:10234000DF91CF911F910F91FF90EF90DF90CF9091
:1023500008950C949208CF93DF93CDB7DEB72B97F7
:102360000FB6F894DEBF0FBECDBF942F4F83252F3D
:10237000588769877A878B874A855B85452B21F04B
:102380002F3F09F59F3FF9F4DE01119686E0FD012C
:1023900011928A95E9F785E0FE01379601900D923A
:1023A0008A95E1F749815A816B817C818D819E817B
:1023B0000E9405192B960FB6F894DEBF0FBECDBF55
:1023C000DF91CF9108954F81588569857A858B85F6
:1023D0000E94D11CD9CFCF93882309F4E8C0C82F1D
:1023E0008238A1F40E94571081FDE1C089E30E9468
:1023F000901B0E94751C2FEF81EE94E021508040CD
:102400009040E1F700C0000089E315C08338C1F4B3
:102410000E94571080FDCBC083E50E94901B0E9454
:10242000751C2FEF81EE94E0215080409040E1F741
:1024300000C0000083E50E94E31BCF910C94751C43
:102440008438A1F40E94571082FDB1C087E40E9435
:10245000901B0E94751C2FEF81EE94E0215080406C
:102460009040E1F700C0000087E4E5CF8CEF8C0FCF
:10247000813A48F48C2F0E945D27811198C08C2FDF
:102480000E94901BDACF80E28C0F883048F4C7702E
:1024900081E001C0880FCA95EAF70E943B1CCDCFAE
:1024A0008BE58C0F833078F4C53A29F0C63A31F0C9
:1024B00083E890E005C081E890E002C082E890E007
:1024C000CF910C94B71088E58C0F853108F06FC060
:1024D000C83A61F1C93A69F1CA3A71F1CB3A79F176
:1024E000CC3A81F1CD3A89F1CE3A91F1CF3A99F1D6
:1024F000C13BA1F1C03BA9F1C23BB1F1C33BB9F172
:10250000C43BC1F1C53BC9F1C63BD1F1C73BD9F1D1
:10251000C83BE1F1C93BE9F1CA3BF1F1CB3BF9F131
:10252000CC3B09F43FC080E090E03EC082EE90E0FA
:102530003BC089EE90E038C08AEE90E035C085EB74
:1025400090E032C086EB90E02FC083EB90E02CC08F
:1025500084EB90E029C087EB90E026C08CEC90E003
:1025600023C08DEC90E020C083E891E01DC08AE894
:1025700091E01AC082E991E017C084E991E014C0AB
:1025800081E292E011C083E292E00EC084E292E028
:102590000BC085E292E008C086E292E005C087E2C7
:1025A00092E002C08AE292E0CF910C94CD10CF91DC
:1025B0000895882309F466C08238A1F40E94571058
:1025C00081FF60C089E30E94901B0E94751C2FEF61
:1025D00081EE94E0215080409040E1F700C000007F
:1025E00089E315C08338B9F40E94571080FF4AC0B0
:1025F00083E50E94901B0E94751C2FEF81EE94E0F2
:10260000215080409040E1F700C0000083E50E9427
:10261000E31B0C94751C8438A1F40E94571082FFB0
:1026200031C087E40E94901B0E94751C2FEF81EE41
:1026300094E0215080409040E1F700C0000087E422
:10264000E6CF9CEF980F913A10F390E2980F9830F4
:1026500050F4877091E001C0990F8A95EAF7892FAD
:102660000E94411CD6CF9BE5980F933020F480E068
:1026700090E00C94B710885A853120F480E090E007
:102680000C94CD100895882321F00E943B1C0C94DB
:10269000751C0895882321F00E94411C0C94751C20
:1026A0000895CF92DF92EF92FF920F931F93CF93F3
:1026B000DF9300D000D000D0CDB7DEB725E0FC011D
:1026C000DE01119601900D922A95E1F7FC014081FF
:1026D0003181F280258122952F7063817481672B6F
:1026E00009F4D8C23F3F19F44F3F09F4D3C26C013B
:1026F00049833A8389819A812E830E944F1B182F28
:10270000092F0E944E1B0E945E1AE02FE295EF7087
:10271000F0E0E05AFF4F2E810C94032A802F807F37
:10272000902F9F70092F882311F00295007FFF20C2
:1027300049F0002309F45FC2802F0E944E1C0E94C2
:10274000751C59C2812F0E94D912002309F4A2C21C
:10275000802F0E94541C26960FB6F894DEBF0FBE41
:10276000CDBFDF91CF911F910F91FF90EF90DF9040
:10277000CF900C94751C802F807F902F9F70092F15
:10278000803211F00295007F112319F0113001F110
:1027900029C0FF20A9F0802F222349F1213039F5EB
:1027A00026960FB6F894DEBF0FBECDBFDF91CF9156
:1027B0001F910F91FF90EF90DF90CF900C945E1CD3
:1027C000222319F0213009F465C20E94611C2CC03B
:1027D000FF20E9F0263008F05DC20E94381C8023FB
:1027E00029F022C0FF20F1F0211115C0802F26967C
:1027F0000FB6F894DEBF0FBECDBFDF91CF911F9112
:102800000F91FF90EF90DF90CF900C944313253001
:1028100008F040C209C0F601858180FFECC18F70CD
:102820008583E4CF2111FBC1802F69C1202F26951C
:102830002695237030E02115310521F02130310536
:10284000C9F028C2FF2021F0812F902F937002C081
:1028500080E090E026960FB6F894DEBF0FBECDBFA5
:10286000DF91CF911F910F91FF90EF90DF90CF906C
:102870000C94B710FF2021F0812F902F937002C08D
:1028800080E090E026960FB6F894DEBF0FBECDBF75
:10289000DF91CF911F910F91FF90EF90DF90CF903C
:1028A0000C94CD10812FFF2019F00E94632102C0EB
:1028B0000E94CB2126960FB6F894DEBF0FBECDBF87
:1028C000DF91CF911F910F91FF90EF90DF90CF900C
:1028D0000C945022802F837009F078C0F110DAC177
:1028E000812F829586958770880F880F912F9F7012
:1028F000C92ED12CE12CF12C082E04C0CC0CDD1CEF
:10290000EE1CFF1C0A94D2F714FF12C04FE050E0F7
:1029100060E070E004C0440F551F661F771F8A9562
:10292000D2F7CB01BA01609570958095909503C060
:1029300060E070E0CB01202F269526952370422F72
:1029400050E042305105D1F04330510559F16C2926
:102950007D298E299F294130510541F126960FB6D8
:10296000F894DEBF0FBECDBFDF91CF911F910F91C5
:10297000FF90EF90DF90CF900C94731A6C297D2913
:102980008E299F2926960FB6F894DEBF0FBECDBFC5
:10299000DF91CF911F910F91FF90EF90DF90CF903B
:1029A0000C94851A0E94731AC701B60126960FB6B9
:1029B000F894DEBF0FBECDBFDF91CF911F910F9175
:1029C000FF90EF90DF90CF900C94611AFF2019F0E8
:1029D000802F817001C08695882309F45BC1812F07
:1029E000829586958770880F880F912F9F70C92ECA
:1029F000D12CE12CF12C082E04C0CC0CDD1CEE1CDB
:102A0000FF1C0A94D2F714FF12C04FE050E060E0C0
:102A100070E004C0440F551F661F771F8A95D2F7D8
:102A2000CB01BA01609570958095909503C060E0E8
:102A300070E0CB01202F269526952370422F50E081
:102A400042305105D1F04330510559F16C297D29AF
:102A50008E299F294130510541F126960FB6F894F1
:102A6000DEBF0FBECDBFDF91CF911F910F91FF90C1
:102A7000EF90DF90CF900C942A1B6C297D298E2932
:102A80009F2926960FB6F894DEBF0FBECDBFDF910B
:102A9000CF911F910F91FF90EF90DF90CF900C940A
:102AA0003C1B0E942A1BC701B60126960FB6F8945C
:102AB000DEBF0FBECDBFDF91CF911F910F91FF9071
:102AC000EF90DF90CF900C94181B103F41F118F459
:102AD000103E48F48BC0123F09F450C0D8F1133FA8
:102AE00009F460C083C01F70802F8F71FF2021F018
:102AF0000E94B11A812F7BCE0E94D21A812F269676
:102B00000FB6F894DEBF0FBECDBFDF91CF911F91FE
:102B10000F91FF90EF90DF90CF900C944A13FF201D
:102B2000A9F0253008F0B6C0802F8F7126960FB619
:102B3000F894DEBF0FBECDBFDF91CF911F910F91F3
:102B4000FF90EF90DF90CF900C94F71A263008F0AA
:102B5000A1C0EACFFF20A1F0802F8F7126960FB67B
:102B6000F894DEBF0FBECDBFDF91CF911F910F91C3
:102B7000FF90EF90DF90CF900C94B11AFF2061F39B
:102B8000802F8F7126960FB6F894DEBF0FBECDBF93
:102B9000DF91CF911F910F91FF90EF90DF90CF9039
:102BA0000C94D21AFF2091F0802F8F7126960FB6C9
:102BB000F894DEBF0FBECDBFDF91CF911F910F9173
:102BC000FF90EF90DF90CF900C949C1A26960FB652
:102BD000F894DEBF0FBECDBFDF91CF911F910F9153
:102BE000FF90EF90DF90CF900C94971AFF20A1F008
:102BF000222309F4B1CF812F26960FB6F894DEBFB9
:102C00000FBECDBFDF91CF911F910F91FF90EF903D
:102C1000DF90CF900C94EB11222309F4B1CF812FD8
:102C200026960FB6F894DEBF0FBECDBFDF91CF91D1
:102C30001F910F91FF90EF90DF90CF900C94D912DD
:102C4000402F4F70612FC6010E94740726960FB661
:102C5000F894DEBF0FBECDBFDF91CF911F910F91D2
:102C6000FF90EF90DF90CF900C94A919402F4F70F8
:102C7000612FC60126960FB6F894DEBF0FBECDBFFA
:102C8000DF91CF911F910F91FF90EF90DF90CF9048
:102C90000C94751E26960FB6F894DEBF0FBECDBFFE
:102CA000DF91CF911F910F91FF90EF90DF90CF9028
:102CB00008950E945B1C0E942A1C0E94751C0E94A1
:102CC00082230E94502280E090E00E94B71080E0B2
:102CD00090E00C94CD100E944B1C0C9459160E944D
:102CE0004F1B292F22952F7030E02C3031054CF4EA
:102CF0002A3031056CF4225031092230310588F434
:102D000007C02C30310549F02F30310531F009C0B2
:102D1000803E48F0803F29F406C093FB882780F965
:102D2000089580E0089581E00895CF93DF9300D067
:102D300000D01F92CDB7DEB70F900F900F900F907D
:102D40000F90DF91CF910895CF93DF9300D000D003
:102D500000D0CDB7DEB726960FB6F894DEBF0FBE13
:102D6000CDBFDF91CF9108951F93CF93DF93C09193
:102D7000750116E080917601C81799F0D0E01C9F8C
:102D8000F0011D9FF00D1124E958FE4F4081518143
:102D900062817381848195810E94A4162196C770F7
:102DA000E9CFDF91CF911F9108954091A7015091F4
:102DB000A8016091A9017091AA018091AB01909145
:102DC000AC010C94A4168091AC0182958F7009F02F
:102DD00054C08091A901882309F44FC080917501E6
:102DE000A09176016091A7017091A8014091AA017C
:102DF0005091AB01B6E08A1709F43FC090E041154D
:102E00005105C1F17F3F11F46F3FA1F1B89FF0016F
:102E1000B99FF00D1124E958FE4F218172132AC089
:102E20002081621327C02281211124C02381348193
:102E30002417350710F421503109241B350B283C89
:102E40003105C0F42091AC012F7020612093AC01BA
:102E500026E0289FF001299FF00D1124E458FE4F31
:102E600080818F708061808387EA91E00E94511396
:102E70000C94B41601968770BECF0895CF92DF925E
:102E8000EF92FF920F931F93CF93DF93CDB7DEB7EF
:102E900062970FB6F894DEBF0FBECDBF8C0185E000
:102EA000F801DE011D9601900D928A95E1F7D80197
:102EB0004C9111965C91119712966C911297139602
:102EC000CD90DC9014973091A7017091A80180916A
:102ED000AA019091AB01009709F46BC17F3F19F4EF
:102EE0003F3F09F466C1E090A901EE2009F4C0C09B
:102EF0002091AC01C816D90628F0F601E81BF90BA1
:102F0000CF0104C0809590958C0D9D1DFF24F394F6
:102F1000883C910578F0F12C207F09F0C6C07C2D0B
:102F2000D98AC88A89890E94951687EA91E00E9409
:102F30005113B1C0822F807F09F046C0751314C0B1
:102F4000341312C0611110C02F7020612093AC01A6
:102F50000E94D51687EA91E00E9451138091AC013E
:102F6000D80115968C932EC0CD2819F15F3F11F42E
:102F70004F3FF9F0F62E61111CC080917501209130
:102F8000760136E0821709F45AC090E0389FF001CC
:102F9000399FF00D1124E958FE4F7181571306C077
:102FA0007081471303C07281711103C0019687704D
:102FB000E9CFF62E662309F418C18091AC01816037
:102FC0008093AC01F12C11C1751308C0341306C0F5
:102FD000611104C08091AC01D801C3C04D875E87E8
:102FE0008D859E856A8B0E946F166A898823E1F120
:102FF0006623D1F12091AC01822F82958F7090E0F1
:10300000029774F08091A7019091A80198878F830F
:103010001986DB86CA862C87CE0107960E9451133B
:1030200086E0F801A7EAB1E001900D928A95E1F7F8
:103030000E94E3160E94D516FF24F394D6C04D8754
:103040005E878D859E850E944F1B292F22952F70AC
:1030500030E0223031050CF0BCC09F7009F0B6C0E2
:10306000805E883008F4C1C0C8010E945113E4CFCB
:10307000C816D90608F453C0F601E81BF90BCF01B6
:10308000883C910508F450C0F12C7C2DD98AC88A5F
:1030900089890E949516E7EAF1E086E0DF011D923A
:1030A0008A95E9F70E94D516A0C0751314C0341391
:1030B00012C0611110C08091AC01F8018583C80174
:1030C0000E94511386E0E7EAF1E0DF011D928A9544
:1030D000E9F7FE2C8AC04D875E878D859E856A8BB9
:1030E0000E946F166A89882309F4BECF662309F40B
:1030F000BBCF2091AC01822F82958F7090E0029718
:103100000CF48ECF8091A7019091A8019A838983B6
:103110001B82DD82CC822E83CE0101967FCF8095EB
:1031200090958C0D9D1DACCFF62E662309F49CCF97
:1031300075132EC034132CC02091AC0120FD1FC08C
:10314000822F82958F70D9F0D80115962C93159700
:103150008F3049F08F5F982F9295907F822F8F70DC
:10316000892B15968C93C8010E94511386E0F801B3
:10317000A7EAB1E001900D928A95E1F793CF86E03E
:10318000F801A7EAB1E001900D928A95E1F72DC010
:103190004D875E878D859E850E946F16811140CF79
:1031A0008091AC0181608093AC01C8010E945113F1
:1031B0001CC0662309F458CF4D875E878D859E8598
:1031C0000E946F16882309F44FCF2ACF811148CF70
:1031D0000CC0243031050CF047CF9F7009F440CF6C
:1031E000F8019581907F09F03BCF8F2D62960FB645
:1031F000F894DEBF0FBECDBFDF91CF911F910F912D
:10320000FF90EF90DF90CF9008951F93CF93DF93BF
:10321000CDB7DEB72C970FB6F894DEBF0FBECDBF8B
:103220004F83588769877A878B879C87CE0107965B
:103230000E943E17882369F08F8198852A853B85F7
:10324000232BF1F19F3F09F063C08F3F09F060C06D
:1032500037C086E0FE013796DE01119601900D928F
:103260008A95E1F76F817885EA85FB85309741F192
:103270007F3F11F46F3F21F12091760130E0C901C9
:103280000196877099274091750150E08417950742
:1032900009F447C069837A83FD83EC8396E0929FAB
:1032A000D001939FB00D1124A958BE4FFE01319655
:1032B00001900D929A95E1F7809376010E94B416E1
:1032C00016E080917501909176018917C1F1189FE0
:1032D000C001112489589E4F0E943E17882379F11E
:1032E000E09175011E9FF0011124E958FE4F4081C5
:1032F000518162817381848195810E94A41680919D
:10330000750190E001968770992780937501D9CF58
:103310004F81588569857A858B859C850E94A41686
:10332000CFCF0E946B161092760110927501E7EADA
:10333000F1E086E0DF011D928A95E9F7C1CF2C9676
:103340000FB6F894DEBF0FBECDBFDF91CF911F91B6
:103350000895DF92EF92FF920F931F93CF93DF9325
:10336000FC01892B09F48AC0E12CF12CDD24D394D3
:10337000EF0121968491853709F461C058F48437B0
:1033800008F04EC0843008F06AC08130D1F082303D
:1033900071F174C0883709F45DC050F4863709F4C0
:1033A00055C0873709F06AC08E2D0E94481C54C052
:1033B0009CE7980F903708F061C08F770E94D91270
:1033C00050C08F010E5F1F4FFE01849190E2980F55
:1033D000983050F48770FD2D01C0FF0F8A95EAF7F1
:1033E0008F2F0E944E1C14C00E94EB1113C08F013E
:1033F0000E5F1F4FFE01C49180E28C0F883060F495
:10340000C7708D2D01C0880FCA95EAF70E94541C21
:103410000E94751CE80125C08C2F0E94D912FACF9A
:103420009F012E5F3F4FFE01C491CC2369F08FE9CD
:103430009FE00197F1F700C00000C150F6CF9F0157
:103440002E5F3F4FFE01F490E9010BC00E94381C33
:10345000E82E07C00E944B1C0E94751C02C00E94EF
:10346000EB118F2D882341F0EFE9FFE03197F1F761
:1034700000C000008150F6CFFE017ACFDF91CF91DE
:103480001F910F91FF90EF90DF9008956093B1012D
:103490007093B2018093B3019093B4010E94E01C39
:1034A0000C9459166093AD017093AE018093AF01F7
:1034B0009093B0010E94E11C0C94591608950C944D
:1034C000461A0F931F930091B1011091B201209100
:1034D000B3013091B401602B712B822B932B1F9180
:1034E0000F910C94461A0F931F930091B101109104
:1034F000B2012091B3013091B40160237123822382
:1035000093231F910F910C94461A0F931F930091D0
:10351000B1011091B2012091B3013091B401602743
:103520007127822793271F910F910C94461A60E010
:1035300070E0CB010C94521A0F931F9341E050E0BE
:1035400060E070E08A019B0104C0000F111F221F80
:10355000331F8A95D2F7C901B8011F910F910C94BE
:10356000521A0F931F9341E050E060E070E004C0F6
:10357000440F551F661F771F8A95D2F78091AD01C2
:103580009091AE01A091AF01B091B0018A019B0171
:10359000082B192B2A2B3B2BC901B8011F910F9126
:1035A0000C94521A0F931F9341E050E060E070E0DA
:1035B00004C0440F551F661F771F8A95D2F74095A8
:1035C0005095609570958091AD019091AE01A0915C
:1035D000AF01B091B0018A019B01082319232A236E
:1035E0003B23C901B8011F910F910C94521A0F93FC
:1035F0001F9341E050E060E070E004C0440F551FAD
:10360000661F771F8A95D2F78091AD019091AE0128
:10361000A091AF01B091B0018A019B010827192741
:103620002A273B27C901B8011F910F910C94521A08
:103630000F931F930091AD011091AE012091AF0146
:103640003091B001602B712B822B932B1F910F9126
:103650000C94521A0F931F930091AD011091AE017B
:103660002091AF013091B001602371238223932315
:103670001F910F910C94521A0F931F930091AD015B
:103680001091AE012091AF013091B00160277127F8
:10369000822793271F910F910C94521A0895CF926D
:1036A000DF92EF92FF920F931F93CF93DF938C01E2
:1036B000C090B101D090B201E090B301F090B4019C
:1036C0004091AD015091AE016091AF017091B00198
:1036D000C42AD52AE62AF72ACFE1D0E0D701C601CD
:1036E0000C2E04C0B695A795979587950A94D2F7A6
:1036F00080FF07C0B8018C2F0E948E1E813091057B
:1037000031F4219758F7B80180E00E948E1EDF91B6
:10371000CF911F910F91FF90EF90DF90CF90089580
:1037200090910B01992321F090910C01911109C006
:1037300020910D0130910E01F90132969FEF40E08A
:1037400030C0982F9695969596959F31A0F4E0916C
:103750000D01F0910E01E90FF11D877021E030E0BD
:10376000A90102C0440F551F8A95E2F7CA01918151
:10377000892B818308959091D80190FF23C01F92D7
:103780008F9386E395E09F938F930E946B070F9032
:103790000F900F900F9008959F3F39F04F5F4E317B
:1037A00041F051915813F8CF0DC05111F7CF942F1C
:1037B000F5CF9F3F39F0F901E90FF11D97FDFA951B
:1037C00082830895089590910B01992321F090919F
:1037D0000C01911109C020910D0130910E01F901E8
:1037E0003296205E3F4F30C0982F969596959695CD
:1037F0009F31A8F4E0910D01F0910E01E90FF11D48
:10380000877021E030E0A90102C0440F551F8A955E
:10381000E2F7CA018095918189238183089590916F
:10382000D80190FF16C01F928F9388E195E09F9377
:103830008F930E946B070F900F900F900F90089539
:103840003196E217F30729F090819813F9CF10828F
:10385000F7CF089581E090E0E0910D01F0910E0125
:10386000E80FF91F1082019680329105A9F708959B
:103870008091D70108959091D701892B8093D7012A
:10388000089580959091D70189238093D701089559
:103890008093D70108951092D70108959091D60191
:1038A000892B8093D601089580959091D601892324
:1038B0008093D60108951092D60108958093B501A2
:1038C00008951092B501089580910D0190910E0117
:1038D000FC0131969C01205E3F4F80E09191911157
:1038E0008F5FE217F307D1F70895E0910D01F09192
:1038F0000E018091D7018083E0910D01F0910E01BE
:1039000090818091D601892B80838091B501882395
:1039100061F0E0910D01F0910E019081892B80837F
:103920000E94641C81111092B50180910D0190914B
:103930000E010C946310909339018093380108951F
:103940008295982F9C7C392F36953695282F237396
:1039500044E0249FC0011124932F982B292F2A7A09
:103960002695892F8575880F822B08951F93CF93F5
:10397000DF931F92CDB7DEB799830E94A01C182F4A
:103980009981892F0E94A01C212F30E0322F2227FD
:10399000A901482BCA010F90DF91CF911F91089583
:1039A0000895CF93DF9300D000D01F92CDB7DEB73C
:1039B0000F900F900F900F900F90DF91CF9108957F
:1039C000089508950C94A91108958091ED01843013
:1039D00021F11092D90120E488E190E00FB6F8942B
:1039E000A895809360000FBE2093600083B7817F0D
:1039F000846083BF83B7816083BF7894889583B7E1
:103A00008E7F83BF0FB6F894A8958091600088617F
:103A100080936000109260000FBE0895089508958D
:103A2000CF930E940E1D0E94A8070E940F1DC0E0A8
:103A30008C2F0E944508811104C0CF5FC530C1F7AB
:103A400001C081E0CF9108950C946B161F920F92E4
:103A50000FB60F9211248F939F93AF93BF938091D2
:103A6000D901811113C08091DA019091DB01A091FD
:103A7000DC01B091DD014196A11DB11D8093DA01F9
:103A80009093DB01A093DC01B093DD01BF91AF9176
:103A90009F918F910F900FBE0F901F90189582E00D
:103AA00084BD93E095BD9AEF97BD80936E00089515
:103AB0002FB7F8948091DA019091DB01A091DC019D
:103AC000B091DD012FBF08952FB7F8946091DA010E
:103AD0007091DB018091DC019091DD012FBF089591
:103AE000CF92DF92EF92FF920F931F932FB7F8942C
:103AF0004091DA015091DB016091DC017091DD01B0
:103B00002FBF6A017B01EE24FF248C0120E030E00E
:103B1000C016D106E206F30610F4415051099A018D
:103B2000281B390BC9011F910F91FF90EF90DF9077
:103B3000CF9008951F920F920FB60F9211248F937A
:103B40009F93AF93BF938091DA019091DB01A09195
:103B5000DC01B091DD010196A11DB11D8093DA0158
:103B60009093DB01A093DC01B093DD01BF91AF9195
:103B70009F918F910F900FBE0F901F9018950E94EC
:103B8000700DF8942FEF87EA91E621508040904025
:103B9000E1F700C0000087E090EBDC018093F701C3
:103BA0009093F801A093F901B093FA019CE088E1A9
:103BB0000FB6F894A895809360000FBE90936000B4
:103BC000FFCF8D3B60F4883A90F5853A28F5843034
:103BD00008F5813009F086C081E090E00895883EC4
:103BE00098F4803EB8F48F3B09F07CC00E946B16BD
:103BF0002FEF80E792E0215080409040E1F700C035
:103C000000000E94BF1D6EC0803F08F46BC090E0B2
:103C10009065089590E00895853A21F0863A21F064
:103C200033E803C031E801C032E820E458C0883AE4
:103C300051F1893A59F18A3A59F18B3A59F18C3A52
:103C400059F18D3A59F18E3A59F18F3A59F1813B38
:103C500059F1803B59F1823B59F1833B59F1843B47
:103C600059F1853B59F1863B61F1873B61F1883B16
:103C700061F1893B61F18A3B61F18B3B61F18C3BE6
:103C800061F130E001C032EE24E429C039EEFCCF0E
:103C90003AEEFACF35EBF8CF36EBF6CF33EBF4CF85
:103CA00034EBF2CF37EBF0CF3CECEECF3DECECCF8A
:103CB00033E805C03AE803C032E901C034E925E43D
:103CC0000EC031E20BC033E209C034E207C035E276
:103CD00005C036E203C037E201C03AE226E4832F92
:103CE000922F089580E090E00895089595E0799FDF
:103CF000F001112499E1899FE00DF11D1124E60FD7
:103D0000F11DE45CFD4F84910895E82FF0E0EE0F83
:103D1000FF1FE455FF4F8591949108950E94761EF0
:103D2000803EA8F4803C00F5813309F45CC038F48F
:103D3000893209F452C08A3209F45BC05FC089330A
:103D4000B1F08238A1F0853309F441C057C0833EF9
:103D500041F128F4803E99F0823EB9F04FC0863E92
:103D600031F1873E71F14AC00E94851E08959091FD
:103D7000F60190FD02C091FF41C080EE3FC08091EE
:103D8000F60180FFFACF89E339C08091F60182FF06
:103D90000CC08091F60184FF02C080E02FC083EE4A
:103DA0002DC08091F60182FFF4CF82EE27C0809172
:103DB000F60183FF0AC08091F60184FDEECF87EE05
:103DC0001DC08091F60183FFF6CF86EE17C080916B
:103DD000F60185FF06C089E211C08091F60185FFDA
:103DE000FACF85E30BC08091F60186FF06C08AE218
:103DF00005C08091F60186FFFACF81E30E94E11DA4
:103E00000895CF92DF92EF92FF920F931F93CF937B
:103E10006C01C0E08C2F0E94450800E010E0E82E05
:103E2000F12CC701002E02C0959587950A94E2F700
:103E300080FF16C0602F7C2F80E00E948E1E9C01A8
:103E40008C159D0559F0832F807E932F907C11F067
:103E5000803A31F430E02C153D0511F481E009C0C1
:103E60000F5F1F4F05301105E1F6CF5FC53091F6AA
:103E700080E0CF911F910F91FF90EF90DF90CF9056
:103E80000895CF93DF93EC018CE290E00E94011F34
:103E9000882329F0CE01DF91CF910C94011F80E09F
:103EA000DF91CF910895CF930E94BB20811102C072
:103EB0000E94A1208BE595E00E94D206C5E6C15084
:103EC00049F00E94A8078FE39CE90197F1F700C031
:103ED0000000F5CF84E595E00E94D20689E290E0EB
:103EE0000E94411F81112BC18AE290E00E94411F74
:103EF00081110E94A12085E090E00E94411F811164
:103F00000E94BF1D0E94E41C0E94C6208093D8011D
:103F100087E090E00E94411F8823C1F18BE190E08F
:103F20000E94411F882351F08091D80181FB2227F4
:103F300020F991E0922790FB81F90FC08EE090E08C
:103F40000E94411F882361F08091D80182FB2227C3
:103F500020F991E0922790FB82F98093D80116C056
:103F600080E190E00E94411F9091D801882341F0A8
:103F700093FB222720F981E0822780FB93F904C07C
:103F8000892F809580FB90F99093D8018091D8017A
:103F90000E94CA200E94D8208093F60180EE90E013
:103FA0000E94411F882341F08091F601982F90953F
:103FB00090FB80F98093F60189E390E00E94411F15
:103FC000882359F08091F60181FB222720F991E0A6
:103FD000922790FB81F98093F60182EE90E00E9497
:103FE000411F882359F08091F60182FB222720F996
:103FF00091E0922790FB82F98093F60186EE90E0A3
:104000000E94411F882359F08091F60183FB2227EB
:1040100020F991E0922790FB83F98093F60183EEDB
:1040200090E00E94411F882359F08091F60184FBA3
:10403000222720F991E0922790FB84F98093F601E2
:1040400085E390E00E94411F882359F08091F6019A
:1040500085FB222720F991E0922790FB85F9809338
:10406000F60181E390E00E94411F882359F080917E
:10407000F60186FB222720F991E0922790FB86F932
:104080008093F60181E190E00E94411F882359F05E
:104090008091F60187FB222720F991E0922790FB7F
:1040A00087F98093F6018091F6010E94DC208091CF
:1040B000F60187FB882780F980930C0187E290E066
:1040C0000E94411FC82F8EE190E00E94411F811184
:1040D000C2608FE190E00E94411F8111C46080E2C4
:1040E00090E00E94411F8111C86081E290E00E942F
:1040F000411F8111C06182E290E00E94411F811145
:10410000C06283E290E00E94411F8111C06484E29A
:1041100090E00E94411F882311F0C06802C0CC23A8
:1041200029F08C2F0E94D3206C2F03C00E94CF2037
:10413000682F70E080E090E0CF910C945F1ACF91EF
:1041400008956DEE7EEF80E090E00E94392A60E0F5
:1041500082E090E00E942B2A60E083E090E00E94E1
:104160002B2A60E084E090E00E942B2A60E085E04A
:1041700090E00C942B2A80E090E00E94252A21E018
:104180008D3E9E4F09F020E0822F089582E090E05E
:104190000C941D2A682F82E090E00C942B2A83E077
:1041A00090E00C941D2A682F83E090E00C942B2A59
:1041B00084E090E00C941D2A682F84E090E00C9439
:1041C0002B2A8091E00180FF0BC06091120185E0F5
:1041D000689FB001112475956795759567952BC0FB
:1041E00081FF09C06091120185E0689FB001112430
:1041F0007595679520C082FF07C06091120185E028
:10420000689FB001112417C09091E1019923D1F06A
:1042100060911101961788F72091120185E0289F7F
:1042200090011124929FA001939F500D112470E0E2
:10423000CA010E94EF296038710540F461157105CB
:1042400039F002C065E070E0862F08958FE7089589
:1042500081E008958091E00180FF08C06091100125
:1042600070E0759567957595679521C081FF06C0CB
:104270006091100170E07595679519C082FF04C0C8
:104280006091100170E010C09091E1019923C1F09C
:1042900060910F019617A0F780911001899FC001CE
:1042A000112470E00E94EF296038710528F461152F
:1042B000710521F0862F08958FE7089581E0089514
:1042C00061E070E0F4CF803F21F40E94E12081950D
:1042D00004C0813F29F40E94E1208093E401089505
:1042E000823F21F40E94E120819504C0833F29F49C
:1042F0000E94E1208093E3010895893F19F40E9410
:104300002A2105C08A3F31F40E942A218195809399
:10431000E50108958B3F21F40E942A21819504C074
:104320008C3F29F40E942A218093E6010895843F5E
:1043300021F48091E201816017C0853F21F48091D2
:10434000E201826011C0863F21F48091E201846025
:104350000BC0873F21F48091E201886005C0883F4F
:1043600031F48091E20180618093E20108958D3FF4
:1043700021F48091E00181600BC08E3F21F4809197
:10438000E001826005C08F3F29F48091E0018460E4
:104390008093E0010895803F39F48091E40187FF24
:1043A0006CC01092E40169C0813F29F48091E4015E
:1043B0001816BCF362C09091E301823F29F497FF85
:1043C0005CC01092E30159C0833F19F41916CCF375
:1043D00054C0893F41F48091E50118160CF04DC09E
:1043E0001092E5014AC08A3F29F48091E50187FFD8
:1043F00044C0F6CF8B3F39F48091E60187FF3DC082
:104400001092E6013AC08C3F29F48091E60118161B
:10441000BCF333C0843F21F48091E2018E7F17C04A
:10442000853F21F48091E2018D7F11C0863F21F408
:104430008091E2018B7F0BC0873F21F48091E201E4
:10444000877F05C0883F31F48091E2018F7E8093A1
:10445000E20113C08D3F21F48091E0018E7F0BC0FB
:104460008E3F21F48091E0018D7F05C08F3F29F4BC
:104470008091E0018B7F8093E0018091E3018111C5
:104480000EC08091E40181110AC08091E501811183
:1044900006C08091E601811102C01092E1010895E9
:1044A0008091D80183FF7EC087E995E00E94D20603
:1044B0008091E2011F928F9382E995E09F938F9301
:1044C0000E946B0780E995E00E94D2068091E3018B
:1044D000282F082E000C330B3F938F938DE895E027
:1044E0009F938F930E946B078BE895E00E94D20602
:1044F0008091E401282F082E000C330B3F938F93FB
:1045000088E895E09F938F930E946B0786E895E07B
:104510000E94D2068091E501282F082E000C330B53
:104520003F938F9383E895E09F938F930E946B074F
:1045300081E895E00E94D2068091E601282F082E9E
:10454000000C330B3F938F938EE795E09F938F93EF
:104550000E946B078BE795E00E94D2068091E101F3
:104560001F928F9388E795E09F938F930E946B072C
:1045700086E795E00E94D2068091E0011F928F931A
:1045800083E795E09F938F930E946B0780E795E008
:104590000E94D2068DB79EB74C960FB6F8949EBF78
:1045A0000FBE8DBF82EE91E00E94AC100E94581D9C
:1045B0009093DF018093DE0108951F93CF93DF93E3
:1045C0008091DE019091DF010E94701DAC019091FD
:1045D000E101992321F02091130130E006C02091E0
:1045E00014018AE0289F900111244217530708F410
:1045F00085C08091E301C091E401D091E501109163
:10460000E601811107C0C11175C0D11173C011112C
:1046100071C074C09F3F19F09F5F9093E10118161D
:1046200024F40E94E1208093E3018091E30187FF5D
:1046300005C00E94E12081958093E3011C1624F4BB
:104640000E94E1208093E4018091E40187FF05C08E
:104650000E94E12081958093E4016091E30166234B
:1046600031F1C091E401CC2311F1062E000C770B3F
:10467000880B990B0E94EA2823E333E343E35FE3CB
:104680000E944E290E94B2286093E3016C2FCC0F48
:10469000770B880B990B0E94EA2823E333E343E36B
:1046A0005FE30E944E290E94B2286093E4011D1628
:1046B00024F40E942A218093E5018091E50187FF7F
:1046C00005C00E942A2181958093E501111624F4EA
:1046D0000E942A218093E6018091E60187FF05C0B0
:1046E0000E942A2181958093E601DF91CF911F914D
:1046F0000C9450229F3F09F08FCF97CFDF91CF913D
:104700001F910895E2EEF1E085E0DF011D928A95A8
:10471000E9F71092E1011092E00108958AEB97E029
:104720000E94D2061F9281E08F931F9285E08F93A3
:104730008CE697E09F938F930E946B070F900F90EA
:104740000F900F900F900F9008958330E9F128F4A7
:10475000813061F0823009F10895853009F462C03A
:1047600008F449C0863009F474C00895809114019A
:10477000262F30E0280F311D2F3F310524F4680F1C
:104780006093140103C08FEF809314018091140192
:104790001F928F9385EA96E072C080911301262FB5
:1047A00030E0280F311D2F3F310524F4680F60934E
:1047B000130103C08FEF80931301809113011F92A7
:1047C0008F9383E996E05BC080911201262F30E041
:1047D000280F311D2F3F310524F4680F609312011B
:1047E00003C08FEF80931201809112011F928F936B
:1047F00080E896E044C080911101262F30E0280F18
:10480000311D2F3F310524F4680F6093110103C05F
:104810008FEF80931101809111011F928F938BE68E
:1048200096E02DC080911001262F30E0280F311D19
:104830002F3F310524F4680F6093100103C08FEF00
:1048400080931001809110011F928F9382E596E072
:1048500016C080910F01262F30E0280F311D2F3F09
:10486000310524F4680F60930F0103C08FEF80932C
:104870000F0180910F011F928F9387E396E09F9322
:104880008F930E946B070F900F900F900F900895D9
:10489000833081F128F4813059F08230D1F00895CD
:1048A000853009F449C0B8F1863009F456C008953E
:1048B00080911401681720F4861B8093140102C0B4
:1048C00010921401809114011F928F9388E296E058
:1048D00054C080911301681720F4861B8093130144
:1048E00002C010921301809113011F928F9386E1F1
:1048F00096E043C080911201681720F4861B8093D4
:10490000120102C010921201809112011F928F9326
:1049100083E096E032C080911101681720F4861B75
:104920008093110102C010921101809111011F9218
:104930008F938EEE95E021C080911001681720F4CE
:10494000861B8093100102C010921001809110010B
:104950001F928F9385ED95E010C080910F0168172D
:1049600020F4861B80930F0102C010920F018091EA
:104970000F011F928F938AEB95E09F938F930E9474
:104980006B070F900F900F900F900895CF93C82F43
:104990001F928F938FEB98E09F938F930E946B07EA
:1049A00081E090E0A0E0B0E0BC01CD0104C0660F62
:1049B000771F881F991FCA95D2F70E945F1A0F9020
:1049C0000F900F900F90CF910C946B16CF938B316B
:1049D00009F4CBC108F049C08E3009F4DAC100F502
:1049E000873009F4A9C1A8F4863009F05AC2809131
:1049F000D801817F8E7F8093D80184EC98E00E945B
:104A0000D2068AEE9CE00E94D20681E08093E80103
:104A100091C1883009F45BC08B3009F487C141C271
:104A2000813109F426C220F4803109F4C6C139C2AB
:104A3000863109F4DDC1893109F033C28EE59CE08D
:104A40000E94D20685E39CE00E94D20680E09CE0B2
:104A50000E94D20689ED9BE00E94D20684E99BE089
:104A60000E94D20686E69BE063C1853309F413C237
:104A700068F4873209F40FC228F48E3108F411C2A9
:104A80008D510CC2893209F406C20BC2833438F44A
:104A90008A3308F002C2883309F448C102C2833461
:104AA00009F4F9C1883409F0FCC10E946B1689ED44
:104AB0009CE00E94D2069FEF23ED80E391502040BE
:104AC0008040E1F700C000000E94BF1D33C18EEEA0
:104AD0009CE00E94D20683EC9AE00E94D2060E94DB
:104AE000CF201F928F9380EC9AE09F938F930E9428
:104AF0006B078EEB9AE00E94D2060E94C620C82F58
:104B00008BEA9AE00E94D2061F92CF9386EA9AE03F
:104B10009F938F930E946B0784EA9AE00E94D206CB
:104B20008AE99AE00E94D2068C2F81701F928F939F
:104B300087E99AE09F938F930E946B0785E99AE03B
:104B40000E94D2068BE89AE00E94D206C1FB882719
:104B500080F91F928F9388E89AE09F938F930E9429
:104B60006B0786E89AE00E94D2068AE79AE00E94E4
:104B7000D206C2FB882780F91F928F9387E79AE0BD
:104B80009F938F930E946B0785E79AE00E94D2065D
:104B90008CE69AE00E94D206C3FBCC27C0F91F9294
:104BA000CF9389E69AE09F938F930E946B0787E6E5
:104BB0009AE00E94D2060E94D820C82F83E59AE08E
:104BC0000E94D2061F92CF938EE49AE09F938F9318
:104BD0000E946B078CE49AE00E94D20683E39AE07D
:104BE0000E94D2068C2F81701F928F9380E39AE0EF
:104BF0009F938F930E946B078DB79EB780960FB6D9
:104C0000F8949EBF0FBE8DBF8EE29AE00E94D2063E
:104C100087E19AE00E94D206C1FB882780F91F92A3
:104C20008F9384E19AE09F938F930E946B0782E1B8
:104C30009AE00E94D20680E09AE00E94D206C2FB6F
:104C4000882780F91F928F938DEF99E09F938F9320
:104C50000E946B078BEF99E00E94D20689EE99E0E3
:104C60000E94D206C3FB882780F91F928F9386EE9D
:104C700099E09F938F930E946B0784EE99E00E94C6
:104C8000D2068AED99E00E94D206C4FB882780F9FB
:104C90001F928F9387ED99E09F938F930E946B07EC
:104CA00085ED99E00E94D20683EC99E00E94D2063D
:104CB000C5FB882780F91F928F9380EC99E09F9322
:104CC0008F930E946B078EEB99E00E94D20682EAD6
:104CD00099E00E94D206C6FB882780F91F928F9325
:104CE0008FE999E09F938F930E946B078DE999E07C
:104CF0000E94D20685E999E00E94D206C7FBCC2724
:104D0000C0F91F92CF9382E999E09F938F930E94FD
:104D10006B0780E999E00E94D2068DB79EB74C964A
:104D20000FB6F8949EBF0FBE8DBF04C08BEE98E007
:104D30000E94D206C1E0BAC08091D801C82FC170CC
:104D400080FF09C08CEC9CE00E94D2068091D801C3
:104D5000817F8E7F47C080EC9CE00E94D2068091CC
:104D6000D80181608093D801E5CF9091D80191FB63
:104D7000CC27C0F981E0C827892FC0FB81F9809337
:104D8000D801CC2319F083EB9CE027C085EA9CE096
:104D9000CFCF9091D80192FBCC27C0F981E0C827F2
:104DA000892FC0FB82F98093D801CC2319F086E9C2
:104DB0009CE013C086E89CE0BBCF9091D80193FBA8
:104DC000CC27C0F981E0C827892FC0FB83F98093E5
:104DD000D801CC2351F08AE79CE00E94D206809152
:104DE000D80181608093D80161C08DE69CE0A0CF9E
:104DF00088E59BE00E94D2060E9457101F928F9375
:104E00008EE39BE09F938F930E946B0780910B0131
:104E10001F928F9387E29BE09F938F930E946B0773
:104E2000809168011F928F9384E19BE09F938F9301
:104E30000E946B0780910C011F928F9381E09BE091
:104E40009F938F930E946B070E94641D9F938F9383
:104E50007F936F938AEE9AE09F938F930E946B07E4
:104E60008DB79EB746960FB6F8949EBF0FBE8DBF06
:104E700061CF0E946B16C0910C0181E0C827C093DE
:104E80000C01CC2329F080EE9AE00E94D2060EC0DD
:104E900085ED9AE04DCF80E001C089530E94C62481
:104EA00049CF83ED9AE00E94D206C0E08C2FCF91CB
:104EB000089580E0089580E00895CF93C82F8091F1
:104EC000E801813071F020F0823009F44BC042C11A
:104ED000E0910D01F0910E018081823209F03CC118
:104EE00007C0E0910D01F0910E018081823261F4E2
:104EF0008C2F0E945927811104C08C2F0E94E62418
:104F00002FC081E090E02CC08C2F0E945B27811184
:104F100026C0C431E1F070F4CB3081F0C031D1F45F
:104F20000E948E2387EB98E00E94D20682E0809355
:104F3000E80115C0C93259F0C83361F484EC98E037
:104F40000E94D2068BEB98E00E94D20608C0109215
:104F5000E80104C185EB98E00E94D206FFC081E021
:104F60008170FEC0C43228F5CE3108F0C1C0CB300C
:104F7000A1F1D0F4C73009F0D3C08EE180931401C1
:104F800082E3809313018AE08093120184E180938D
:104F9000110188E08093100188E280930F018BE576
:104FA00097E00E94D206BFC0C33149F1C431C1F0BD
:104FB000B7C0CB3409F4A9C028F4C93289F0C8338A
:104FC00061F0AEC0C13509F49EC0C23509F499C084
:104FD000CE3409F0A5C06AE09EC00E948E23A3C013
:104FE0008091E701882319F01092E7019CC088E6C0
:104FF00097E00E94D20681E08093E801B1C082E48C
:1050000097E00E94D20680E397E00E94D20680914A
:1050100014011F928F938DE297E09F938F930E94CC
:105020006B078BE297E00E94D20689E197E00E942D
:10503000D206809113011F928F9386E197E09F9390
:105040008F930E946B0784E197E00E94D20685E06F
:1050500097E00E94D206809112011F928F9382E006
:1050600097E09F938F930E946B0780E097E00E94E8
:10507000D2068FEE96E00E94D206809111011F9217
:105080008F938CEE96E09F938F930E946B078AEE2E
:1050900096E00E94D20685ED96E00E94D2068091AD
:1050A00010011F928F9382ED96E09F938F930E9441
:1050B0006B0780ED96E00E94D20689EB96E00E9495
:1050C000D20680910F011F928F9386EB96E09F93FB
:1050D0008F930E946B0784EB96E00E94D2068DB7F7
:1050E0009EB748960FB6F8949EBF0FBE8DBF1BC0EB
:1050F000CE51EC2FF0E0E25DFE4F80818093E7011E
:1051000012C061E003C061E006C06AE08091E7017F
:105110000E94A52308C08091E7010E94482403C093
:1051200089E597E013C08091E701882369F01F9219
:105130008F9383E597E09F938F930E946B070F9067
:105140000F900F900F9004C080E597E00E94D20668
:1051500081E006C01092E80180E002C080E000CF4C
:10516000CF9108950E94B9286894B1110C944829F0
:1051700008950E942D2988F09F5798F0B92F9927FC
:10518000B751B0F0E1F0660F771F881F991F1AF032
:10519000BA95C9F714C0B13091F00E944729B1E027
:1051A00008950C944729672F782F8827B85F39F026
:1051B000B93FCCF3869577956795B395D9F73EF4CB
:1051C00090958095709561957F4F8F4F9F4F089573
:1051D000E89409C097FB3EF4909580957095619591
:1051E0007F4F8F4F9F4F9923A9F0F92F96E9BB2747
:1051F0009395F695879577956795B795F111F8CFC3
:10520000FAF4BB0F11F460FF1BC06F5F7F4F8F4F2D
:105210009F4F16C0882311F096E911C0772321F023
:105220009EE8872F762F05C0662371F096E8862FBB
:1052300070E060E02AF09A95660F771F881FDAF712
:10524000880F9695879597F9089557FD9058440FC4
:10525000551F59F05F3F71F04795880F97FB991FD5
:1052600061F09F3F79F08795089512161306140692
:10527000551FF2CF4695F1DF08C01616170618061F
:10528000991FF1CF86957105610508940895E894FA
:10529000BB2766277727CB0197F908950E946129DC
:1052A0000C94D2290E94C42938F00E94CB2920F006
:1052B000952311F00C94BB290C94C12911240C9452
:1052C00048290E94252970F3959FC1F3950F50E05E
:1052D000551F629FF001729FBB27F00DB11D639FA8
:1052E000AA27F00DB11DAA1F649F6627B00DA11D4E
:1052F000661F829F2227B00DA11D621F739FB00DF4
:10530000A11D621F839FA00D611D221F749F332763
:10531000A00D611D231F849F600D211D822F762FFC
:105320006A2F11249F5750409AF0F1F088234AF0D9
:10533000EE0FFF1FBB1F661F771F881F9150504045
:10534000A9F79E3F510580F00C94BB290C94482985
:105350005F3FE4F3983ED4F3869577956795B795CC
:10536000F795E7959F5FC1F7FE2B880F911D9695E6
:10537000879597F9089597F99F6780E870E060E056
:1053800008959FEF80EC089500240A9416161706DE
:1053900018060906089500240A9412161306140626
:1053A00005060895092E0394000C11F4882352F089
:1053B000BB0F40F4BF2B11F460FF04C06F5F7F4F41
:1053C0008F4F9F4F0895991B79E004C0991F96173E
:1053D00008F0961B881F7A95C9F78095089597FB6A
:1053E000072E16F4009407D077FD09D00E94092AF1
:1053F00007FC05D03EF4909581959F4F08957095D8
:1054000061957F4F0895EE0FFF1F0590F491E02DF9
:105410000994AA1BBB1B51E107C0AA1FBB1FA617FB
:10542000B70710F0A61BB70B881F991F5A95A9F74D
:1054300080959095BC01CD010895F999FECF92BD5C
:1054400081BDF89A992780B50895A8E1B0E042E0BF
:1054500050E00C94402A262FF999FECF1FBA92BD36
:1054600081BD20BD0FB6F894FA9AF99A0FBE019645
:1054700008950E942B2A272F0C942C2ADC01CB01A3
:10548000FC01F999FECF06C0F2BDE1BDF89A319654
:1054900000B40D9241505040B8F70895F894FFCFF2
:1054A0000599088A0967093309FF080101B601282F
:1054B00008140A321E404D362239B3046604300403
:1054C0000E04D503480361037A039303B303010277
:0854D0000304050607080900AA
:00000001FF
